:100000000C9434000C943E000C943E000C943E0082
:100010000C943E000C943E000C943E000C943E0068
:100020000C943E000C943E000C943E000C943E0058
:100030000C943E000C943E000C943E000C943E0048
:100040000C943E000C943E000C943E000C943E0038
:100050000C943E000C943E000C943E000C943E0028
:100060000C943E000C943E0011241FBECFEFD8E04C
:10007000DEBFCDBF0E945B000C9440020C940000D8
:1000800090E490937C0090917C00892B80937C007D
:1000900080917A00806580937A0080917A0084FF55
:1000A000FCCF80917A008F7B80937A0080917800DA
:1000B00090917900089580E880936100109261002A
:1000C00017B88FEF84B98AB992ED97BD18BC83EA4F
:1000D00084BD22E025BD9093B3001092B4008093BC
:1000E000B00082EA8093B10080917A0080688093AA
:1000F0007A00C2E8D7E882E090E00E944000BC01AC
:1001000090E080E00E94890120E030E0A9010E9497
:1001100018016B017C0190E080E00E944000BC016E
:1001200090E080E00E94890120E030E0A9010E9477
:1001300018014B015C0181E090E00E944000BC018D
:1001400090E080E00E94890120E030E0A9010E9457
:1001500018012B013C0120E030E045EA53E4C701DF
:10016000B6010E943B0287FD31C0C7BDD093B300EA
:100170008FE097E20197F1F700C0000020E030E047
:100180004AEF53E4C701B6010E943B0218160CF077
:10019000B2CF20E030E04AEF53E4C501B4010E9441
:1001A0003B0218160CF0A7CF20E030E04AEF53E4F2
:1001B000C301B2010E943B0218160CF09CCF8FE2E3
:1001C00095E70197F1F700C0000095CF20E030E0FF
:1001D0004EE353E4C501B4010E943B02181674F4C7
:1001E00020E030E048EC52E4C701B6010E948401EF
:1001F00087FF04C017BCD093B3007DCF20E030E070
:100200004EE353E4C301B2010E943B0218160CF006
:1002100072CF20E030E048EC52E4C701B6010E9402
:10022000840187FF68CFC7BD1092B30064CF5058D8
:10023000BB27AA270E942F010C9401020E94F30100
:1002400038F00E94FA0120F039F49F3F19F426F4A7
:100250000C94F0010EF4E095E7FB0C94EA01E92F11
:100260000E94120258F3BA176207730784079507B2
:1002700020F079F4A6F50C9434020EF4E0950B2EE0
:10028000BA2FA02D0B01B90190010C01CA01A001E8
:100290001124FF27591B99F0593F50F4503E68F143
:1002A0001A16F040A22F232F342F4427585FF3CF84
:1002B000469537952795A795F0405395C9F77EF455
:1002C0001F16BA0B620B730B840BBAF09150A1F09E
:1002D000FF0FBB1F661F771F881FC2F70EC0BA0F24
:1002E000621F731F841F48F4879577956795B795AC
:1002F000F7959E3F08F0B0CF9395880F08F09927A7
:10030000EE0F9795879508950E94C60108F481E045
:100310000895E89409C097FB3EF4909580957095F8
:1003200061957F4F8F4F9F4F9923A9F0F92F96E941
:10033000BB279395F695879577956795B795F111B6
:10034000F8CFFAF4BB0F11F460FF1BC06F5F7F4F53
:100350008F4F9F4F16C0882311F096E911C0772365
:1003600021F09EE8872F762F05C0662371F096E86E
:10037000862F70E060E02AF09A95660F771F881F3D
:10038000DAF7880F9695879597F90895990F0008E1
:10039000550FAA0BE0E8FEEF16161706E807F90757
:1003A000C0F012161306E407F50798F0621B730BF2
:1003B000840B950B39F40A2661F0232B242B252B73
:1003C00021F408950A2609F4A140A6958FEF811D16
:1003D000811D089597F99F6780E870E060E00895B7
:1003E0009FEF80EC089500240A941616170618064D
:1003F0000906089500240A94121613061406050629
:100400000895092E0394000C11F4882352F0BB0FB9
:1004100040F4BF2B11F460FF04C06F5F7F4F8F4F1C
:100420009F4F089557FD9058440F551F59F05F3F57
:1004300071F04795880F97FB991F61F09F3F79F006
:1004400087950895121613061406551FF2CF469588
:10045000F1DF08C0161617061806991FF1CF86950A
:100460007105610508940895E894BB2766277727EE
:10047000CB0197F908950E94C60108F48FEF089503
:04048000F894FFCF1E
:00000001FF
