:100000000C9434000C9449000C9449000C94490061
:100010000C9449000C9449000C9449000C9449003C
:100020000C9449000C9449000C9449000C9449002C
:100030000C9449000C9449000C9449000C9449001C
:100040000C9449000C9449000C9449000C9449000C
:100050000C9449000C9449000C9449000C944900FC
:100060000C9449000C94490011241FBECFEFD8E036
:10007000DEBFCDBF11E0A0E0B1E0E0E8F6E002C0F5
:1000800005900D92A430B107D9F70E94A4000C94FA
:100090003E030C94000090E490937C0090917C00CF
:1000A000892B80937C0080917A00806580937A0010
:1000B00080917A0084FFFCCF80917A008F7B8093BF
:1000C0007A008091780090917900089587BDBC01F5
:1000D000990F880B990B0E94890226E636E646EEB8
:1000E0005FE30E94E6010E9458026093B300089506
:1000F0008093B300BC01990F880B990B0E94890271
:1001000020910001309101014091020150910301C1
:100110000E94E6010E94580267BD089587BD609362
:10012000B30018BC1092B400089587BD1092B300BC
:100130008093B4002FEF80E792E021508040904000
:10014000E1F700C00000089580E8809361001092FC
:10015000610017B88FEF84B98AB983EA84BD92E051
:1001600095BD8093B00082EA8093B10080917A00BF
:10017000806880937A00CEE6DDE303E010E0C12CD6
:10018000D12C7601460157012601370183E090E02A
:100190000E944B00BC0190E080E00E9487029B011E
:1001A000AC01C301B2010E9475012B013C0184E046
:1001B00090E00E944B00BC0190E080E00E9487022A
:1001C0009B01AC01C501B4010E9475014B015C01AA
:1001D00085E090E00E944B00BC0190E080E00E942E
:1001E00087029B01AC01C701B6010E9475016B013A
:1001F0007C010150110951F620E030E040E450E468
:10020000C301B2010E94E6012B013C0120E030E075
:1002100040E450E4C501B4010E94E6014B015C01D9
:1002200020E030E040E450E4C701B6010E94E6015E
:100230006B017C0118BC1092B40020E030E048EC67
:1002400053E4C501B4010E94E10120E030E04AEF2F
:1002500053E487FF1EC0C301B2010E94E10187FF82
:1002600005C08AE590E00E94950087CF20E030E04D
:100270004AEF53E4C701B6010E94E10187FF04C0C1
:10028000C7BDD093B30079CF8EE690E00E9478008E
:1002900074CFC301B2010E94E10187FDE2CF20E0EB
:1002A00030E048E454E4C501B4010E94E10187FF55
:1002B0000AC020E030E04AEF53E4C501B4010E94D7
:1002C00039031816ECF220E030E04AEF53E4C7019E
:1002D000B6010E94E10187FDD3CF69EB70E084EBAA
:1002E00090E00E948E0049CF5058BB27AA270E9459
:1002F0008C010C94FF020E94F10238F00E94F80277
:1003000020F039F49F3F19F426F40C94EE020EF419
:10031000E095E7FB0C94E802E92F0E94100358F3E4
:10032000BA17620773078407950720F079F4A6F5DA
:100330000C9432030EF4E0950B2EBA2FA02D0B0176
:10034000B90190010C01CA01A0011124FF27591B1A
:1003500099F0593F50F4503E68F11A16F040A22F20
:10036000232F342F4427585FF3CF46953795279591
:10037000A795F0405395C9F77EF41F16BA0B620B90
:10038000730B840BBAF09150A1F0FF0FBB1F661FD7
:10039000771F881FC2F70EC0BA0F621F731F841F1A
:1003A00048F4879577956795B795F7959E3F08F040
:1003B000B0CF9395880F08F09927EE0F9795879502
:1003C00008950E94C40208F481E008950E94FA0191
:1003D0000C94FF020E94F80258F00E94F10240F0D3
:1003E00029F45F3F29F00C94E80251110C94330377
:1003F0000C94EE020E94100368F39923B1F3552385
:1004000091F3951B550BBB27AA2762177307840727
:1004100038F09F5F5F4F220F331F441FAA1FA9F3BD
:1004200035D00E2E3AF0E0E832D091505040E695AB
:10043000001CCAF72BD0FE2F29D0660F771F881F0C
:10044000BB1F261737074807AB07B0E809F0BB0BFF
:10045000802DBF01FF2793585F4F3AF09E3F510513
:1004600078F00C94E8020C9433035F3FE4F3983E79
:10047000D4F3869577956795B795F7959F5FC9F7FC
:10048000880F911D9695879597F90895E1E0660F7D
:10049000771F881FBB1F621773078407BA0720F0F6
:1004A000621B730B840BBA0BEE1F88F7E09508955F
:1004B0000E94180388F09F5798F0B92F9927B751D9
:1004C000B0F0E1F0660F771F881F991F1AF0BA95F8
:1004D000C9F714C0B13091F00E943203B1E0089521
:1004E0000C943203672F782F8827B85F39F0B93F13
:1004F000CCF3869577956795B395D9F73EF49095AB
:100500008095709561957F4F8F4F9F4F0895E89428
:1005100009C097FB3EF490958095709561957F4F4B
:100520008F4F9F4F9923A9F0F92F96E9BB279395F9
:10053000F695879577956795B795F111F8CFFAF409
:10054000BB0F11F460FF1BC06F5F7F4F8F4F9F4F3A
:1005500016C0882311F096E911C0772321F09EE898
:10056000872F762F05C0662371F096E8862F70E0FE
:1005700060E02AF09A95660F771F881FDAF7880FD8
:100580009695879597F90895990F0008550FAA0B2E
:10059000E0E8FEEF16161706E807F907C0F0121696
:1005A0001306E407F50798F0621B730B840B950B99
:1005B00039F40A2661F0232B242B252B21F40895EE
:1005C0000A2609F4A140A6958FEF811D811D08958B
:1005D00097F99F6780E870E060E008959FEF80ECF6
:1005E000089500240A941616170618060906089599
:1005F00000240A9412161306140605060895092EFF
:100600000394000C11F4882352F0BB0F40F4BF2B6D
:1006100011F460FF04C06F5F7F4F8F4F9F4F0895AD
:1006200057FD9058440F551F59F05F3F71F04795A3
:10063000880F97FB991F61F09F3F79F08795089588
:10064000121613061406551FF2CF4695F1DF08C0A7
:10065000161617061806991FF1CF869571056105C4
:1006600008940895E894BB2766277727CB0197F96C
:1006700008950E94C40208F48FEF0895F894FFCF04
:040680000000004036
:00000001FF
